:020000040000FA
:1000000000640020D53C0100AB1F0200C13C010090
:10001000C13C0100C13C0100C13C010000000000E6
:100020000000000000000000000000006D3E010024
:10003000C13C010000000000DD3D0100C13C0100A9
:10004000054101008B3C0200054101000541010012
:100050000541010005410100054101000541010084
:10006000A13C02000541010005410100753C020070
:100070000541010005410100054101000541010064
:100080000541010005410100054101000541010054
:100090000541010005410100054101000541010044
:1000A0000541010005410100054101000541010034
:1000B0000541010005410100054101000541010024
:1000C0000541010005410100054101000541010014
:1000D0000541010005410100054101000541010004
:1000E00005410100054101000541010005410100F4
:1000F00005410100054101000541010005410100E4
:1001000001F0FF01102A2BDB10F0070F08D010F8C8
:10011000013B013A8B422DD010F0070F42B3F6D1CC
:10012000F0B441EA012141EA014122F007047FF0E5
:1001300000070023F0E80256083C85EA010586EA3C
:10014000010685FA47F5A3FA87F586FA47F6A5FA78
:1001500087F68EB9EED1F0BC01F0FF0102F0070284
:1001600032B110F8013B013A83EA010313B1F8D12F
:100170000020704701387047002D06BF3546033810
:10018000073815F0010F07D1013015F4807F02BF49
:10019000013015F4C03F0130F0BC0138704700BF9A
:1001A000064B074A5B7802604FF41A728280C37173
:1001B0000822002382710372704700BF581200208A
:1001C000CBE40000064B074A5B7A02604FF4907262
:1001D0008280C3710822FF2382710372704700BFBF
:1001E00058120020E3DF0000F8B5C41D002824F0F9
:1001F0000704054614BF2046002000F0E7FA071E5A
:1002000002DA6FF00B00F8BD254EB1887088F379E3
:10021000B2790331033089B280B20BF0BDFF002800
:10022000EFDB737831783C4403341944002D24F01B
:10023000030400FB01F114BF2046002000F04AFC3B
:1002400023180DB9002BDCDB717A184679B1033322
:10025000002D23F0030414BF20460020728900F013
:10026000ABFC0028CDDB20440DB90028C9DB317A76
:1002700091B1737A83B1C41D002D24F0070414BF1B
:100280002046002003F04CFA0028BADB0DB1002014
:10029000B9E72018B7D5B4E7002DF8D1B3E700BF10
:1002A000581200201FB572B6194BDD68EDB9BFF3C7
:1002B0004F8F1849184BCA6802F4E0621343CB60B1
:1002C000BFF34F8F00BFFDE72346B2FBF6F25C1C85
:1002D000002AF9D104AEDCB256FA83F303F80C2CF1
:1002E0000A2234B901A8A847E1E7024600230A26FA
:1002F000EDE7631E04AEDCB256FA83F3B0FBF2F610
:1003000002FB1600303003F80C0C3046E9E700BF62
:100310005812002000ED00E00400FA0507B50A4B72
:10032000DA88ADF8002068469A885B88ADF804202A
:10033000ADF8023001F0EEFD18B1FC219C20FFF772
:10034000B1FF03B05DF804FB5812002038B5054634
:1003500040B30AF0BDFA10B94FF0FF3038BD09F0D4
:100360001FFEB0F5FA7FF7D8104C1148E56000F099
:10037000A7F9002323744FF4807323801B23638029
:10038000A38040F20323E3804FF4847323811F236F
:100390006381EFF3108472B600F0E4FC04B962B636
:1003A0000020DBE76FF01500D8E700BF58120020EF
:1003B0001D03000010B5002840D1234C237C032BE3
:1003C00039D059B1002A3CD00239052936D8DFE8A6
:1003D00001F0031227352A2D137863700020FFF7F0
:1003E00003FF0028B7BF0123022323746FF00B0023
:1003F000A8BF237410BD13791BB353790BB31188B5
:10040000FB291ED853881B3B9BB2E02B19D81A2915
:1004100017D91368C4F802300C4B92889A80DDE734
:1004200013786372DAE713886381D7E71388FF2BA9
:1004300007D82372D2E74FF0FF30DBE76FF02C00D4
:10044000D8E76FF01500D5E7581200205A120020A7
:10045000F8B50D46064620B319B311F0070420D1B4
:10046000114F3B7C012B02D16FF00B00F8BD032B29
:1004700002D14FF0FF30F9E700F060F80028F8D023
:100480002846FFF7B1FE0028EEDB0EF083F8304679
:10049000214601F0C5FDFFF741FF03233B742046D1
:1004A000E4E76FF01500E1E75812002010B5064CA4
:1004B000237C032B03D101F0CBFD02F061FC0BF098
:1004C0006CFF0020207410BD5812002050B1074B63
:1004D00003F1140253F8041B40F8041B9342F9D1B2
:1004E000002070476FF01500704700BFE58F0200D5
:1004F00008B501F05FFDBDE808400249012000F0A9
:100500005DB900BFC501000008B501F067FDBDE899
:1005100008400249002000F051B900BFA1010000CD
:10052000024B02681A600020704700BF6C12002066
:10053000014B1B68184700BF6C120020024B186863
:10054000003818BF012070476C1200202DE9F743D6
:10055000264E0446071D2548376002F029FC022874
:10056000054607D1214920460BF0DCF9284603B0A7
:10057000BDE8F0830428F9D13378072B18D13E2049
:1005800000F04AF878B9F378327901A943EA0223F6
:100590006846ADF800300BF0EBFB0028DBD05321B0
:1005A0000820FFF77FFE052000F076F80028EAD04B
:1005B000314620460BF0E5F9B0F5817F01D3722179
:1005C000EEE70028C7D094F8008094F802904046E7
:1005D00000F022F80028BED0B8F13E0FC6D1484640
:1005E00000F05AF80028C1D1B5E700BF7012002012
:1005F000074B4FF0FF3141F6FF72C3E90012054986
:100600000022C1E900221F21C3E90212704700BF86
:1006100000050020B41200203F280CD801380B4BF5
:10062000C0F3421200F01F0053F8223023FA00F00A
:1006300000F001007047FF2806D04038C0F3421296
:10064000034B00F01F00EFE701207047000500207A
:10065000B41200200146074B006849681A4603C2DD
:1006600040F48C221A6041F0107242F4FF625A602A
:10067000704700BF000500200246024B0068516829
:1006800003C37047B41200200246024B0068516851
:1006900003C3704708050020382800F1FF33DBB2A0
:1006A0001FBF064A590902EB810203F01F031DBF59
:1006B0009068D84000F0010000207047000500203D
:1006C000014B1860704700BFBC12002010B5FFF747
:1006D0008FFF0BF062FF034B1B68044603B1984782
:1006E000204610BDBC120020F0B50C88C37C0288E7
:1006F000A5B2C4F30E0404F118060233865B1A4453
:10070000334497B213FA82F3013B4288B3FBF7F309
:1007100013FB07439BB29A42044A93BF22EA0503A4
:100720002A4013439BB20B80F0BD00BF0080FFFF47
:100730004A1E062A08B50346084604D84FF4D1716C
:100740001520FFF7AFFD094A914202D940F2A311EB
:10075000F6E711B903B1196008BD2BB11B6800227F
:10076000C3E901211A1D1A600430F5E7FAFFFF7F83
:1007700010B5114B00EB41041A786389B3FBF2F317
:1007800003FB0223013A1A44B2F5706F02798078B4
:1007900028BF00231A440B18B2FBF0F100FB112113
:1007A0005B1AB3FBF0F100FB113313446FEA4343D0
:1007B0006FEA5343638110BDC0120020024B03EB6C
:1007C00080035960704700BFC01200202DE9F04F30
:1007D00010F0070A85B0054604D040F261111720D9
:1007E000FFF760FD524F07F10C06B1460446B046D4
:1007F00057F8043B8DF80BA03BB101A898479DF832
:100800000A30082B01D9E821E9E79DF80B1041BB1C
:1008100005B131604F4506F10406E9D1002D6FD0D6
:10082000DFF81091002289F800209646022758F838
:1008300027A0013FBAF1000F55D09AF804609AF84A
:1008400002C0FF2E60D039460023481C38D19C449A
:10085000BCF1FF0F3FD90AB189F800E040F227113F
:10086000BDE79DF80AC06046022838BF02204B1D34
:100870005A0004EB4303441E2344BDF8084064447B
:10088000013CCCF1000C04EA0C044042B4F5803F7A
:1008900003EA000301D3F821A1E775B19A1A0120F8
:1008A000326091701480D0709DF80C001071019826
:1008B00010814FEA104CA2F806C004FB0134A9E7EE
:1008C00058F8210028B190F804B0B34504BF8078EF
:1008D0001B180139B9E7DBB2E6458AF804303CBFA2
:1008E0005FFA8CFE01227B1CA1D10AB189F800E0DD
:1008F000022640F6FF6A58F82670B7B9013EFAD2D0
:10090000601B05B0BDE8F08F0023E5E707EB41036E
:100910003846A3F80AA0FFF72BFF09F10109BB78BD
:100920005FFA89F18B42F1D8E8E74FF00009F6E76A
:10093000C4120020C012002038B54FF6FF730380A8
:10094000184B03EB810302461869A8B18478037938
:10095000B3FBF4F104FB1133DBB2194600EB4105A4
:10096000B5F90A50002D0EDB0131B1FBF4F504FBA3
:100970001511C9B28B42F1D1002038BD6381BDE8A9
:1009800038400BF0E5BB00EB41046389C3F30E0371
:100990001380C278002AF1D14FF4D5711720FFF7E8
:1009A00081FC00BFC01200201C4B03EB810370B51B
:1009B0001C69054644B3030404D54FF4DC711720C9
:1009C000FFF770FC014620460BF0A4FBFF28014610
:1009D00004D02046BDE870400BF0BABBA078B5FB50
:1009E000F0F300FB1353DBB219460A1D04EB420679
:1009F000B6F90260002E09DB0131B1FBF0F200FB19
:100A00001211C9B28B42F0D1002070BD8B4201D0CF
:100A10000023E37004EB42025580DAE7C0120020A5
:100A2000094B03EB810310B51C69014620460BF00E
:100A300071FBFF28014604D02046BDE810400BF0B2
:100A400087BB002010BD00BFC0120020F8B5104BBE
:100A500003EB810307461C69014620460BF05AFB55
:100A6000FF28054611D0E288238953EA024606D0C2
:100A7000014620460BF06CFB01463846B047204645
:100A80002946FFF775FE0020F8BD0520FCE700BFF2
:100A9000C012002038B50E4B827903EB8203044666
:100AA000186908B9052038BD8278E1799142F9D2F8
:100AB0004B1CE37100EB41035D89B3F90A30002B55
:100AC000F3DBA5800BF044FB20600020EBE700BFC8
:100AD000C012002070B5044610F003000E4603D08B
:100AE0004E211820FFF7DEFBFFF722FE054624B15A
:100AF000034831460460FFF71BFE284670BD00BF67
:100B0000DC1200202DE9F14FDFF870B09DF828A02D
:100B10009DF82C901E46DBF8003007460D469046A7
:100B20001BB960211820FFF7BDFB52460921404642
:100B30000BF06DF94A4684B2092130460BF067F993
:100B400014FA80F1DBF800000BF0B8FA386018B93D
:100B5000286001B0BDE8F08F04442C60386853462B
:100B6000414609220BF016F928684B460922314606
:100B700001B0BDE8F04F0BF00DB900BFDC12002052
:100B800070B50E4604460BF055F9054630460BF09D
:100B900051F9044B2A1821461868BDE870400BF043
:100BA000B2BA00BFDC120020024B186808B10BF08B
:100BB00079BA7047DC1200201F2AF8B504461346A4
:100BC0000ED89200033222F00303B3F5803F2DD2FA
:100BD000184DACB1A00710D05F210920FFF762FBD0
:100BE000FF2B4FEA420204D9FF339A42A8BF1A46AC
:100BF000E8E77C2AB8BF7C22E4E729706C602B818F
:100C000022F003022823120403FB01F001276B6882
:100C1000120C0025EEB2B14200D8F8BD14B126186E
:100C20001F705E60104401352833F3E74FF0FF304A
:100C3000F3E700BFE012002070B5154A157853683D
:100C40000021C8B2854203D8AB210920FFF72AFB57
:100C50001C46184614F8286B01310EB92346F0E7FC
:100C600000219970128999610124D96159685C70D9
:100C7000920803F11E0403F1260524F8022FA54271
:100C800043F8041F1144F8D100234361037070BD81
:100C9000E01200204B782DE9F04106460C4602F0A8
:100CA000040702F0FB05E3B1A5BBFF23A3707B089B
:100CB00004EB57073A7D032A02D1022D18BF0133F6
:100CC000E2180121117503F10C0104EB83030022EA
:100CD00024F811205B68A2703360B2803046BDE812
:100CE000F081002DE1D101234B701D4B8D611B89DB
:100CF000CD6101F11E0249689B08204604F1260CD3
:100D000022F8023F944540F8041F1944F8D100230B
:100D10006361CAE7D1F80480142200216170A01831
:100D20000AF042F80E4B1B89B3F5FF7F0FD25A0829
:100D30009B1A9BB208EB0301C4F804802384A160D2
:100D40006284C4F80C80A3842161E284ADE7B3F52A
:100D5000EE6F4FF0FF02EBD940F27263EAE700BF9B
:100D6000E0120020134B012200214FF0FF309A6067
:100D7000C3F80012C3F80803C3F80015C3F804252C
:100D80009A60C3F80803C3F80015C3F804250A499C
:100D90000A4A03F580334FF40040C3F80825C1F830
:100DA0008000BFF34F8FBFF36F8FC1F88001C3F88E
:100DB0000825704700F0004000E100E00000F63F29
:100DC0000A46192302F8033B0448C368C1F80330FC
:100DD0000369536043699360704700BFEC120020C1
:100DE000024B5A8C02435A845B6A1847EC1200206B
:100DF000014B00215B6A1847EC12002010B5154C1E
:100E000005F064FD05F0A8F8208DFFF7F1FF237EC3
:100E100063B12246104952F80C3BE36063685360AB
:100E200004F11900A36893600CF0F2FA0B4B228DC9
:100E300093E8030002F0A4FC236B188802F026FC60
:100E4000A36B94F8341094F835009847002384F885
:100E50003C3010BDEC120020C10D00001813002022
:100E6000034B93F83C300BB1FFF7C8BF704700BF8E
:100E7000EC12002070B51E4C256B636C95F88C202D
:100E8000236494F8483095F86910064603EB820015
:100E90002EB9FF2803D195F868308B4201D005F0B8
:100EA0009DFB95F88C30E3B1E06C05F0AFFD0123BC
:100EB00084F86830D5F8E8302366E16CD5F8EC307A
:100EC000206C636605F024F816B9304605F0F2FD93
:100ED00095F86810002005F041FE022384F83C30AC
:100EE00070BD206C05F092FD05F036F8ECE700BF10
:100EF000EC12002008B5094B93F83C20022A04D0DC
:100F000040F24F212720FFF7CDF9DA7A42F00102B3
:100F1000DA72BDE80840FFF771BF00BFEC12002095
:100F2000032810B50A4B044605D15A6FD278022A1D
:100F300001D1002010BD986F0AF0FEFF0028F9D102
:100F4000032CF6D001F048FA80F00100C0B2F1E7BE
:100F5000EC1200202DE9F043484C94F83C30012B72
:100F600085B005468846DFB204D040F20451272000
:100F7000FFF798F9266B616F02A80BF010FA96F84C
:100F80007C309DF808903BB1002186F87C1004204D
:100F9000FFF726FF86F87E70B9F1030F27D0BDF862
:100FA0000C30002B18BF022796F88C3086F8827020
:100FB000BBB1236BD6F8E82093F8690022660127BD
:100FC000D6F8EC20626684F868700BF005FA94F8A5
:100FD00048902B4900220346009238464A4604F0C6
:100FE00013FF6DB105B0BDE8F043FFF707BF96F8FA
:100FF00082301BB9616F0220FFF7F2FE0327D3E7AF
:10100000B8F1000FEED0E36F284698470028E9D0EA
:1010100094F83430002BE5D194F8803023B194F863
:101020008100FFF77DFF0546606C0CF066F9D4F88F
:101030008430B3B9B4F88830B3FA83F35B09628CB7
:10104000910710D5626F137803F00303032BC9D106
:10105000D378022BC6D1002005B0BDE8F043FFF7DE
:1010600009BF0123EBE7002ABCD1012814BF0023EC
:1010700003F001032B43EED1B4E700BFEC120020D4
:101080003C13002010B5094CD4F8843023B940F249
:10109000F6412720FFF706F9B4F88820216C0332C7
:1010A000184609F0C1FE206410BD00BFEC120020FC
:1010B00010B5064B93F83C2002F0FF0422B91C76D1
:1010C00002F056FB204610BD0C24FBE7EC1200207A
:1010D0000A4B0B4A70B506460D461A60FFF7E8FF4B
:1010E00018B1F4212720FFF7DDF8064C012104F1A7
:1010F0008A000CF0F2F86664E56470BD48050020D3
:101100000C190000EC120020024B012283F88D2004
:10111000704700BFEC120020F0B5794C85B002AEEC
:1011200086E8030094F83C100A9F01F0FF0511B90E
:101130000AB103B127B940F283112720FFF7B2F8B3
:1011400096E8030004F12C0C8CE8030084F88D5021
:1011500084F8345084F88E5084F8355084F88F50D9
:1011600084F8905065842585256BE3676262A763E8
:1011700005F078FA04F0F0FE95F9700005F0FCFA3D
:101180006E6AE86905F0FEFA304605F031FC95F824
:101190009C0005F001FB236B93F89F310BB105F028
:1011A0004FFA0CF041FC95F8692000F1790101201B
:1011B00005F078FB534B186805F020FC2B69A367FA
:1011C000514A6B69C4F8943005F5807105F1F0035C
:1011D00053F8040B42F8040B8B42F9D1D5F80021E7
:1011E000C4F869205A68494B5A60236B93F88620EB
:1011F00093F86860A2F12501012903D993F88710BB
:1012000025295FD193F83E322BB1012E03D0012B5B
:101210000CBF0126022605F13007314638460CF096
:1012200034F931460BF0ADFEAB8F95F8691083426F
:1012300028BF0346384684F898300CF016F995F824
:10124000691095F88C70B5F84460042908BF032133
:101250000BF097FE0FB9043080B2864228BF0646D5
:1012600095F88C30F6B284F8996084F84860A3B1A0
:10127000D5F8E83095F8690023660127D5F8EC30F9
:10128000636684F868700BF0A7F8002203460092AA
:101290001D493246384604F0B7FD0120FFF7EAFD4C
:1012A000002323606360A360B5F8803063802B88DF
:1012B000238095F89C302371EB6E0BB101221A60EC
:1012C00005B0F0BD203A012A0DD823290DD093F89E
:1012D000263113F0010202D19B079CD50222012E78
:1012E00018BF164697E7232905D193F8262193F8CE
:1012F00061301340EDE7032E08BF04268BE700BFE3
:10130000EC120020480500203C130020551300205B
:1013100008B50C4B93F83C201AB9BDE80840FFF71C
:101320006DBD93F83C20022A04D040F231212720E1
:10133000FEF7B8FF1B6BD3F8B001BDE8084005F01D
:1013400081BB00BFEC120020014B1876704700BF34
:10135000EC120020014B93F88F007047EC12002034
:10136000024B93F82900C0F3C0007047EC12002034
:10137000014B93F88E007047EC1200202DE9F043EA
:10138000314D85B004460F4602A8296C2E6B0BF038
:1013900006F814F00109BDF80C8004F0020428D00E
:1013A000002385F89A3094B1FFF76CFE0DF102022C
:1013B00001A9D5F894000AF06BFE01980AF04EFEE0
:1013C000012238604146D5F894000AF0F6FDB9F1E3
:1013D000000F0BD0D6E93A32013342F10002C6E9E0
:1013E0003A3296F88430013386F8843005B0BDE88F
:1013F000F08395F89A30032B20D801A252F823F0FD
:10140000A7130000111400002B1400002B1400007F
:10141000002CEBD0FFF736FED5F8940000224146B1
:1014200005B0BDE8F0430AF0C8BD002CDED0D5F809
:10143000940005B0BDE8F0430AF026BE40F2A24198
:101440002720FEF72FFF00BFEC1200202DE9F04F00
:10145000A94C002389B0CDE9043394F83C30266BC5
:10146000022B8046894604D040F28B512720FEF79C
:1014700019FF216C06A80AF092FF96F88C30B8F19B
:10148000000F00F028819DF819B0BDF81C70002BEA
:1014900039D004F079FDB0BB6FB196F8843003F019
:1014A00001035B450BD1012384F83530FFF7A6FC1F
:1014B00009B0BDE8F08FA4F88870002006E0A4F819
:1014C0008870D4F8940039460AF057FD238D9DF8B2
:1014D0001A20C4F8840043F40073238596F88330FF
:1014E00003F001039A4263D0256B95F88230002BFC
:1014F0003DD0022B13D1A06F04A90AF0E7FC38B944
:1015000040F23B41B2E7A4F88870002FD5D0D8E76D
:10151000D5E93832013342F10002C5E9383295F895
:101520007E30002185F8821023B185F87E101020CE
:10153000FFF756FC95F87D30A3B14FF0000A85F80F
:101540007DA000F033FF10B940F252418EE75146C2
:101550000820FFF745FCD5E93832013342F100029B
:10156000C5E9383295F88330013385F88330238D0F
:1015700043F4006323854FF0000A96F8843003F0AB
:1015800001035B4544D19DF81830256B022B11D81F
:10159000EBB995F88430013385F88430002F37D0CB
:1015A000D5E93A32013342F10002C5E93A322FE07F
:1015B000C246E2E7032BECD1238D216C012043F4DA
:1015C000805385F87C002385FFF70AFCE1E7002FB4
:1015D000DFD0238D95F88C5043F48053238504F09D
:1015E000AFFF042894F8993006D1002D0CBF1F22BC
:1015F0001B22934228BF1346BB4262D3D4F88430E7
:1016000033B194F88D30002B74D02020FFF7F0FB1D
:10161000002796F88B309BB1D6F8E03096F868003A
:1016200023660025D6F8E430636684F868500AF033
:10163000D3FE324900950346FB22284604F0E4FB22
:10164000B9F1000F5CD1638C94F88E10180708D59F
:10165000626F137803F00303032B02D1D378022BBC
:101660004ED001294CD8E36F01209847002847D07D
:1016700094F83430002B43D11FB105A90120FFF7A6
:101680007DFE256B002395F88C208DF80D3094F8A5
:10169000483095F8681003EB8203FF2B03D195F8CF
:1016A00069308B4202D0FF2004F098FF95F8823019
:1016B000032B00F21781DFE813F07A00A500FC008D
:1016C0000D0194F83430012043F0100384F83430D5
:1016D00007F0C6FA9CE70BB104F092FC94F88E3048
:1016E000013384F88E30238D002743F480632385F3
:1016F000BA468EE747468CE7EC1200203C130020E8
:1017000005F038FA002F4DD14FF00109238D5A060C
:1017100006D44020FFF76CFB238D43F04003238564
:10172000BAF1000F0DD0B4F80720B4F80530134318
:10173000B6F8802013431EBFB4F809300133A4F873
:101740000930B8F1000F00F0D580B4F8053001334E
:10175000A4F80530002384F88E30694801F084FF36
:10176000049830B10AF07AFC216B0022027201F079
:1017700063FB059B33B1216B00221A720C22059882
:1017800001F028FBB9F1000F7FF490AE238D1B060A
:101790003FF58EAE8020FFF72BFB238D43F08003B7
:1017A000238585E605A90320FFF7E8FDACE794F85B
:1017B0009830ADF80E305348A5F8583000F0E6FDEB
:1017C00028B1012385F87D3084F890301CE0A06FAB
:1017D0000DF10D020DF10E010AF053FB606788B1A7
:1017E00095F8C73073B99DF80D302BB9038083701D
:1017F000606F01210BF071FD636FBDF80E205A7010
:101800000123E1E7404B6367D4F874B095F8832077
:101810009BF80000D20002F0080200F0F30313432B
:1018200095F88420920002F0040213438BF80030F4
:1018300000F00300FFF774FB9BF8003023F0100367
:1018400043EA00138BF8003095F88B30606F002B63
:101850004BD04378002B48D0E06C05F0D7F800233C
:1018600084F86830D5F8E0302366616FD5F8E4304D
:10187000E06C636604F012FB95F86910012005F036
:101880006DF90125606F84F88F500BF036FD636FA2
:1018900084F880001B7884F83C5003F0030384F83C
:1018A0008130002F3FF432AF05A90220FFF766FD1B
:1018B0002CE7B5F85830A06FADF80E300DF10D02E1
:1018C0000DF10E010AF0DDFA6067002898D140F2B0
:1018D000F121CBE50B4800F059FD002890D140F2F2
:1018E000FB21C3E540F20931C0E505F08FF804F0B3
:1018F00033FBC1E7B4F807300133A4F807302CE715
:10190000181300206013002076130020F50E00004D
:101910004D140000550F0000610E0000F0B5070CDB
:10192000A7F5AA42144B543A012A03EA90231FD97F
:1019300027F4004042F6AA22801A18BF0120002294
:10194000162116461F2487EA060562EA05050135B9
:1019500010D0DD03ADB245EA5606E503ADB201395C
:1019600045EA52024FEA53034FEA5404EBD1F0BD6B
:101970000020E4E70020FAE7E0FF3F0010B5012176
:101980000020FFF74DF8044670B90121FFF70CF86D
:10199000044620B940F291313920FEF783FC034B15
:1019A00093F906100CF0EFFA204610BD88130020C2
:1019B00008B50BF069FA00F057FE00F077FB0BF06A
:1019C000FFFC01F0BFFE00F0EFFF094B00221A60A0
:1019D000084B1B214FF4A47098801A805980064B45
:1019E000064818605A829A7599805A749A8208BD7E
:1019F0004C05002088130020B417002003021B00B0
:101A0000044B41F64C52C3E902221B221A74FFF721
:101A1000CFBF00BFB417002073B5244DAB6803637C
:101A2000234B836104460CF069F9064600F02EFB57
:101A3000830654BF1B236B88A4F85A3058BF1A463C
:101A40001C4B297C1B6848BFAA88A4F85C2084F83A
:101A5000381066871BB194F9701020889847164E8D
:101A6000204631460BF0AFFA01236A886978E38596
:101A7000AB88019116F8121C0091033303329BB21C
:101A800092B204F1140104F11000FFF73BF823694E
:101A900023B940F2C5613920FEF704FC636913B92C
:101AA00040F2C661F7E7002002B070BDB417002015
:101AB00000093D0050050020C6170020F7B5044678
:101AC0000D460CF093FA00286DD020460CF06AFB0E
:101AD00038B1B5F80130013B7F2B02D9122003B099
:101AE000F0BD20460CF062FB08B90C20F7E7204659
:101AF0000CF0FAF90028F8D120460CF035FA064629
:101B00000028F2D1204603F01BF80028E6D0B5F8F3
:101B10000170E97842F2107320465F430CF02EFB0F
:101B200020460CF037FB014648B93A46204602F001
:101B3000B7F9B0B341F69D413920FEF7B3FB31460A
:101B40000DF10600FEF7F8FE054608B90D20C6E7C0
:101B5000314600F077FEBDF806302B80204629463E
:101B60000CF02EFB20460CF027FB88B9216A20469A
:101B70000CF024FB01462846FFF74EFF3A46294663
:101B8000204602F08DF9024620B14FF4E651D3E72A
:101B90000121F0E7054B9B681BB105F58D712846C7
:101BA000984700209BE7422099E700BF8813002058
:101BB000024B1B6803B118470C2070474C050020EE
:101BC000034B5A8802801B7883700020704700BF47
:101BD000B417002037B583781A2B054608D8042B94
:101BE00004D9144A22FA03F3DB0705D412241AE0BD
:101BF000292B01D03B2BF9D12888B0F5706FF5D295
:101C000069460BF081F988B9019B93F8182102F01D
:101C1000FF046AB9AA7883F81921FF2283F81821F2
:101C200068460BF0A8FB204603B030BD0224FAE75B
:101C30000C24F8E72000380438B50278447802F024
:101C4000010354EA030102F0020201D1112038BD60
:101C5000BAB98578002DF9D0002B18BF002400E018
:101C60001D4620460AF0C8FB0028EFD028460AF09F
:101C7000C3FB0028EAD0054B00209C74DD749882D9
:101C8000E5E7002BECD000242546EAE7B417002056
:101C900013B5008869460BF037F918B102242046C5
:101CA00002B010BD019A92F8DC31DBB292F8A820A4
:101CB000002AF3D113F0FB0FF0D0019890F82A31ED
:101CC0000BB13A24EBE790F8D23003F0FF04002B7D
:101CD000F7D190F8C9309B0706D1FF2380F82A314D
:101CE00068460BF048FBDAE70249CA300BF090FB7C
:101CF000D5E700BF9BD90000F7B50778EF2F054661
:101D00000C460FD890F901204378002A0ADB82782C
:101D1000900707D113F010001DD1990603F00302BC
:101D200002D51AB1122442E0032AFBD01E07F9D4CF
:101D30002979EA78EE7942EA0122697942EA014298
:101D4000A97941EA06212E7A41EA06418A42E9D878
:101D50001F2A0FD8E6E713F0600FE3D103F0070264
:101D6000052A05D003F00F010D22CA40D107D9D5AD
:101D70001A07DDD56A7A013A062AD3D8AA7A032A45
:101D8000D0D813F0040102D1023A012A03D8EA7A2A
:101D9000012AC7D811B9AA7C032AC3D82A7D48B121
:101DA000012ABFD12A7E012ABCD830B9112420468D
:101DB00003B0F0BD022AF5D1B4E7DB0712D46B788B
:101DC0002A7D03F01803082B11D1022AEED101213C
:101DD0003846FEF725FE064678B10CF085F8B8B116
:101DE0000C24E4E700F016F90028E8D1DEE7022A27
:101DF000EDD02B7F002BEAD0D8E701213846FEF743
:101E0000D3FD064640B3154B93F906100CF0BBF812
:101E100030460CF0BCF929462070E87430460CF0CE
:101E200001F9EB7E0446002BC1D00028BFD1316BF5
:101E300002466846FEF72EFF306B224601210AF06B
:101E4000F3F9316B68460422FEF724FF306B22461B
:101E500021460AF0E9F9AAE70724A8E78813002039
:101E600030B50279042A8BB003464FD84088B0F5CC
:101E7000804F4BD826498D5C114400244A79ADF837
:101E8000004042F0100242EA45028D7AC97B8DF88B
:101E9000084042EA850242EAC10202F01F028DF8C0
:101EA0000020BDF80020ADF809201A888DF80B201D
:101EB0008DF80E00120A000A8DF80C208DF80D40E6
:101EC0008DF80F008DF810405A7B8DF811205A794B
:101ED0008DF812209A79D3F807008DF81320B3F803
:101EE0000B209B7B8DF81A307F2305908DF81B30DB
:101EF00069464FF0011302A8CDE90734ADF8182068
:101F00008DF82440FFF7F8FE0BB030BD1220FBE740
:101F1000585C02000278034672B1427862B142888E
:101F20001A2A09D982881A2A06D9044A0068106038
:101F30009B8893800020704712207047B4170020C0
:101F4000024B02689A600020704700BFB41700205F
:101F50000378A3F10A02112A9DBF024A00201374DC
:101F600012207047B417002008B502F0D1FD02F02E
:101F700083F8BDE80840014802F0B4BD9413002086
:101F800010B50B4A0123144682F8023102F0C8FD55
:101F90000CF0BEFA0AF076FF04F203112046FFF7B8
:101FA00097F800200AF0DCF8BDE8104000F0F8BE19
:101FB0009413002010B5064C064904F502700AF08F
:101FC00021FE04F503700449BDE810400AF01ABE72
:101FD00094130020540500205C05002010B5094C26
:101FE000094904F502700AF00DFE04F50370074973
:101FF0000AF008FE04F504700549BDE810400AF037
:1020000001BE00BF94130020640500206C05002071
:1020100074050020014B93F80201704794130020CF
:1020200010B5074C00F098FED4F808020AF0E2FD63
:10203000FFF7E6FC00F0B2FF012384F8143210BD74
:1020400094130020014B93F814027047941300205E
:1020500010B5074CD4F80C020AF0CCFDD4F81002ED
:102060000AF0C8FDFFF7A4FC002384F8143210BD69
:1020700094130020C208044900F0070001238340A4
:10208000885C03438B54704710050020014BD3E953
:102090000001704710050020034B1868C0F30020B2
:1020A000400040F0010070471005002008B507F01F
:1020B00077FF084A002332F82310814205D302EB50
:1020C00083029378044A137008BD01330C2BF2D1BC
:1020D0000023F7E76C5C0200A915002010B54468E6
:1020E0002388A4F8683194F8683084F86711012BCC
:1020F00006D0022B04D04FF461710620FEF7D2F80F
:1021000084F86A3194F86930012B01D0022BF2D1A6
:1021100084F86B31044904F5AF700BF079F90023B2
:1021200084F8243110BD00BF7FCC0000406808490E
:102130000388A0F85A3190F8603080F85C3190F84C
:10214000613080F85D3100F251100BF05BB900BFD7
:1021500095CC00002DE9F0438946097999F805806E
:10216000456801F0070108F007084B1E08F1FF322F
:1021700002EA08020B40134395F8872095F8866021
:10218000232A85B004463BD105F18707FBB94046B9
:102190000AF0C1FD00283DD095F86830984239D04A
:1021A00095F8262118EA020F11D0212E32D095F889
:1021B000612018EA020F2DD10138013B4D4AC0B20F
:1021C000DBB2032B105C20D8D35C834222D995F874
:1021D0002431012B53D11E212046FFF77FFF212EF2
:1021E00051D16368182283F80921092283F88620D7
:1021F00093F8C230002B3ED14FF43171AE2007E08E
:10220000212E75D105F18607C0E74FF40F71062026
:10221000FEF748F808460AF07EFD38B195F86930B7
:10222000834203D095F827311942D0D0B9F806601F
:1022300003AB00932846334642460AF079FD6368B3
:10224000054678BB93F82421012A28D1014620466F
:10225000FFF744FF3D70636803F18702974202D1A4
:10226000002283F88720636803F1870297423BD1FD
:1022700020460BF096F9002005B0BDE8F08300235E
:1022800085F82431ABE7002320463B700BF089F939
:102290001821204605B0BDE8F0430BF0AAB983F839
:1022A0002401D8E7B3F88020A3F83C62013EB61AB7
:1022B000B6B247F6FD72964206D9282283F8A920C5
:1022C000204600F0CFFFCEE793F887200D2A02D0FA
:1022D0000A3A012A01D82A22F0E7BDF80C20A3F817
:1022E0003E2225233B70BEE7002283F8C220C2E7CE
:1022F0000220C1E79C5C0200044B002283F82220EC
:102300004FF6FF729A84DA841A857047AA15002066
:10231000054B9A8C824201BF002283F822204FF69F
:10232000FF729A84704700BFAA150020014BD88421
:10233000704700BFAA150020084B998C4FF6FF721A
:10234000914206D193F82220012A04D00360012093
:102350007047002303600020704700BFAA150020CB
:10236000064B93F82220012A1FBF0120DA8C83F844
:1023700022009A8408BF0020704700BFAA150020E1
:10238000014B1885704700BFAA150020064B024676
:10239000198D988C884205D193F8220018B11360EA
:1023A0000120704700207047AA150020094B998C26
:1023B0001A8D914201D0002070474FF6FF729A8427
:1023C00093F82220002AF6D0002283F82220012050
:1023D000704700BFAA150020054B998C1A8D9142B9
:1023E00003BF93F82200B0FA80F040090120704743
:1023F000AA15002050B90A4A1346012003F8010B20
:102400000868C2F801008A889A807047012805D1BF
:10241000034B0A689A608A88D8719A81704700BF16
:10242000D415002050B90B4B187888B1D3F801208F
:10243000B3F805300A608B8001207047012806D16F
:10244000044BD87920B19A680A609B89F3E7002091
:10245000704700BFD415002010B9044B187870479E
:10246000012806BF014BD87900207047D415002001
:10247000F7B500238A888DF80600ADF804200868B7
:102480000B4A8DF80730019D1478014602F5A872B9
:10249000D8B2844201D8082008E052F8087F566874
:1024A000AE4208BF8F4203F10103F1D103B0F0BD8A
:1024B000E815002030B5094B01465C78002203F294
:1024C0000113D0B2844201D8082005E013F8015F5F
:1024D0008D4202F10102F4D130BD00BFE8150020A9
:1024E000F0B5254D95F8984189B0224605F299112D
:1024F000684608F099FC214668460AF0E4FC044668
:10250000B8B300EB4001C9B202A8FEF711F8631E90
:1025100095F8A161DBB2012495F8981105E0721CD1
:10252000B2FBF1F001FB1022D6B206F120020DEB56
:10253000020010F8202C002AF1D103EB43012031D6
:10254000694406EB46022A4411F8187C82F8A2710D
:1025500011F8177C11F8161C82F8A37182F8A411E7
:1025600000F8204C013BAA19DBB2FF2B82F89941FD
:10257000D2D109B0F0BD00BFE815002070B5064605
:1025800088B00C46002A4ED0294A92F8A131D018C2
:1025900090F8991119B9FF212820FDF783FE03EB6C
:1025A00043011144013391F8A251E57091F8A35110
:1025B00091F8A41161710021257180F8991192F8A8
:1025C0009811B3FBF1F001FB103382F8A13192F8BE
:1025D000C23123B9174902F5DD700AF016FF65799B
:1025E00005F03F0545F0400565710D220021684664
:1025F00008F0DAFBE3788DF80F3023798DF80E3090
:1026000004AA0423694630468DF80D5008F02AFAD2
:102610009DF81F3023709DF81E3063709DF81D30AB
:10262000A37008B070BD03216018FDF781FFD6E7E5
:10263000E8150020E1240000044B5A78824286BF4E
:102640001B1893F84A010020704700BFE8150020CE
:10265000044B5A78824286BF1B1893F8420100202F
:10266000704700BFE8150020064B00224FF461714F
:102670001A8083F8C32183F8C421A3F8C61183F814
:10268000C2217047E8150020014BB3F8C60170471E
:10269000E815002030B50A4B5C7884420ED9184406
:1026A00090F802012B3003EBC004A5790D7053F8AC
:1026B00030001060A3889380012030BD0020FCE72B
:1026C000E81500200246074810B590F8C34124B130
:1026D000417821B1023003F00DFB204610BD0C46BD
:1026E000FBE700BFE81500202DE9F74F2F4C9A4675
:1026F000637883428046894656D9231893F842511D
:1027000085F00105F9B193F84A31E3B945F00207C4
:102710000135BAF1000F18D1FA070AD5062101FBDD
:10272000084104EB0810524601F585718230FFF72D
:1027300025FFBB0734D504EB08105246494602304A
:10274000FFF71CFF2CE02F46E3E794F8A1614FF060
:10275000010B002DE0D0A319019393F8991199B9B9
:102760000092DAB100F0EAFB06EB46012144019B3E
:1027700081F8A2014FEA102C009A81F8A3C1000C45
:1027800081F8A40183F899B194F898310136B6FB29
:10279000F3F103FB1166F6B2013DDAE747F00407F7
:1027A000384603B0BDE8F08F0027F9E7E8150020B0
:1027B000074B5A78824209D91A1892F842212AB94D
:1027C000062202FB003000F585707047002070473C
:1027D000E8150020064B5A78824281BF1B1893F8F7
:1027E0003A01B0FA80F0400998BF0020704700BF5E
:1027F000E815002030B50024A0F84040B0F844406F
:1028000042F210754C43B4FBF2F4A0F84440541E5D
:1028100005FB0343B3FBF2F3A0F84230084BB3FBD4
:10282000F2F30133A0F84830838F05FB0344436B78
:10283000B4FBF2F459438463B1FBF2F1416330BD60
:10284000005A620270B504460D4659BB4FF41A7225
:1028500008F0AAFA012384F88E306FF0360384F86A
:10286000D930042384F8DA306FF03B0384F8DB308E
:102870006F2384F8DC306FF03C0384F8DD306FF0B8
:102880007F0384F8DF302B2384F8D830FE2384F8CC
:102890000E317F2384F88530202384F8DE5084F8BD
:1028A000F73170BD012923D10023A0F8B43180F89D
:1028B000AB31826940F6B833A0F8B4301146438C8E
:1028C0007830FFF797FF104B1B68062B01D00133C0
:1028D0000CD10E4B1B68063B083307D9E069FFF7A4
:1028E0001DF818B9012384F89F31DAE70023FAE7CD
:1028F0000229D6D1B0F84A32D0F844228169BDE825
:1029000070407830FFF776BF101B0020141B0020AA
:10291000034B80F870101B680BB100881847704794
:102920007C0500200B2808B504D940F2C7112920E6
:10293000FDF7B8FC014B33F8100008BDA05C0200A5
:10294000074B93F900301844142804DC10F17F0F72
:1029500003DB40B27047142070476FF07E00704771
:10296000B017002007B57F230DF107008DF8073061
:1029700004F0DCF803469DF9070053B1094B5B787E
:102980005B4240FA83F0142806DC10F17F0F05DB70
:1029900040B203B05DF804FB1420FAE76FF07E004C
:1029A000F7E700BFB0170020024B00221A705A70E0
:1029B000704700BFB017002003464078B0B1DB7805
:1029C0003F2B0BD80A4AD35C03F07F0290420CD015
:1029D0008CBF0120002000EAD310704703F10A02E7
:1029E000D2B2022A01D8B63BECE70120704700BF03
:1029F000B85C02003F2908B5C17005D80C4B5B5C80
:102A000003F07F03437008BD01F10A03DBB2022B20
:102A100004D8074B0B4413F8B63CF1E7FF2904D068
:102A200040F243412A20FDF73DFC0123EAE700BFC5
:102A3000B85C02002DE9F347894669461546984679
:102A40000AF062FA044620B9019E35B9012386F8DE
:102A50008D30012002B0BDE8F0873769294638463D
:102A600009F0B9F901460028F4D0164B5B88AB4257
:102A700025D3384609F0EEFA96F88D300480002B05
:102A80000CBF49460221824684700AF026FC41466A
:102A90002A460AF1030008F0C7F92946384609F02A
:102AA000D5F918B97E212B20FDF7FCFB68460AF00A
:102AB00062FC019BA3F8A24186F88D40C9E720463D
:102AC000C8E700BFB4170020024B987DC04300F058
:102AD00001007047B417002083230B70014B1B7853
:102AE000CB707047CC1700202DE9F84FD0F8048048
:102AF000D8F8146030460D4609F09EFA044618B91D
:102B0000FF211020FDF7CEFB0146304609F0A2FA66
:102B1000B4F800B01FFA8BF98246B9F1000F02D168
:102B200040F20311EDE71E4B1B68C71C8BB9B8F8C8
:102B30000030AB8000236B72A5F806B09AF8003025
:102B400003F00303012B0FD0022B0DD040F21D1117
:102B5000D7E7B8F800004A463946984704460028A7
:102B6000E5D12046BDE8F88F2B72304609F078FA9F
:102B7000044610B94FF49371C3E7B9F1FB0F02D9C2
:102B800040F23511BDE7286810B94FF49B71B8E7E2
:102B90004A46394608F048F9304609F0BCF9E0E702
:102BA000800500202DE9F347DFF8508182468946F1
:102BB00005270026D9F8103053B11B7A1BB98021A4
:102BC0001020FDF76FFBD9F81040B4B9002071E078
:102BD000D9F80440237A012BF8D0EFF3108372B6B2
:102BE000D9F804201268C9F8042003B962B6C9F8FC
:102BF0001040237A0BB9A621E2E7257AEDB22772BD
:102C00006B1E0B2B6AD8DFE803F066061C34636981
:102C10003D6969696958636813B94FF4D771CFE7A3
:102C20002046514698470420EFF3108272B6237A6B
:102C3000052BD9B25CD12672C9F81060B2B962B660
:102C400014E0636813B940F2B711B9E75146204662
:102C500098470346C3F30723012BADF80400C0B225
:102C60003FD0022BE0D10023C9F810300028A1D0BA
:102C700020E0636813B940F2BF11A1E720469847EE
:102C80000020D1E763680BB9B52199E70B228AF8D8
:102C9000002019881869AAF80310012200248AF874
:102CA00002208AF805208AF8064009F034F9C9F8AC
:102CB0001040042002B0BDE8F087D8F8003051463B
:102CC00020469847034660B1C9F810600220F1E73A
:102CD0004FF4FB7174E740F2F91171E74FF4FE71A4
:102CE0006EE725720028E5D1002B7FF463AF6DE716
:102CF00011B940F21D2163E700209FE78405002001
:102D000038B5134C14220021201D08F04DF8012580
:102D10002574142204F10803002104F11800C4E909
:102D2000013308F041F884F8245004F11C03C4E98D
:102D30000633084A0023E362236384F83430C4F87E
:102D40003530C4F8393084F83D30136038BD00BFE9
:102D5000CC1700208005002010B5084C2378FF2BED
:102D600004D04FF4A0711020FDF79CFA07F0C0FECC
:102D70002070BDE81040FFF7C3BF00BF1D05002055
:102D800010B5034C207807F0CDFEFF23237010BD53
:102D90001D050020014B187807F0D4BE1D0500204A
:102DA000014B024A1A60704784050020E92A00009E
:102DB00010B506490446FFF7F5FE28B92046044938
:102DC000BDE81040FFF7EEBE10BD00BFE4170020C5
:102DD000D017002010B51346027A22B140F2992193
:102DE0001020FDF75FFA0A46BDE810400146014891
:102DF0000AF0E8BAD0170020044890F834301BB924
:102E000003492C300AF0FBBA704700BFCC170020F2
:102E1000B7D300000346064890F83E203AB190F838
:102E20003D2022B900F8353B02490AF0E8BA704764
:102E3000CC170020D92A000010B50A46037A23B126
:102E400040F2A1211020FDF72DFA0146BDE8104007
:102E5000014807230AF0B6BAE41700201346027AA5
:102E60000AB1037270470A46014601480AF0AABA3D
:102E7000D01700201B234FF01B1283840384826130
:102E80008382C260038539B94FF4A473034AC384B3
:102E90004384C261C3820261704700BF4801480198
:102EA0000346F0B4B3F85420B3F84840B3F8446094
:102EB000DF8FB3F84250944228BF14460846B3F857
:102EC0004C20B3F85610DC878A4228BF0A46B3F874
:102ED0004610A3F84220914238BF1146A64238BF9F
:102EE0002646A742A3F84460A3F846101FD1AA1AA9
:102EF00018BF0122B3F84A50B3F85040B3F85270EB
:102F00009E8FB3F84010A54228BF2546B3F84E4027
:102F10009D87BC4228BF3C46AE42A3F8404002D148
:102F2000A14200D12AB1F0BC03490AF071BA0122D2
:102F3000E0E7F0BC704700BF17D40000094AD2E9AF
:102F40000003434083EAB01181EA43214FEAF3438F
:102F50005360054B116058434FEAF06000EB80006E
:102F6000704700BF0C180020BB79379E094AD2E990
:102F70000003434083EAB01181EA43214FEAF3435F
:102F80005360054B116058434FEAF06000EB80003E
:102F9000704700BF20050020BB79379E10B50A4C52
:102FA00009480821FDF7C4FAD4E900321343F7D0E9
:102FB000064CFFF7DBFF2060FFF7D8FF2368606057
:102FC0001843F6D010BD00BF200500200C180020CB
:102FD000174B184A9A60184A5A60184A1A60184AD9
:102FE0009A62184ADA62184ADA60184A9A61184AEC
:102FF0001A63184A1A62184ADA64184A9A64184A14
:103000005A62184B184A9A60184A5A62184ADA6289
:10301000184A1A61184A5A61184A9A61184A1A637A
:10302000184A9A64184ADA64184A9A63704700BFCB
:103030008805002087D60000B7D6000023D70000FF
:10304000DFD7000033D800008D33000049D80000DE
:10305000D13500007134000017D9000033D90000C9
:10306000B934000094060020A3D60000E9D800007F
:103070006BD800000FD800008FD80000113400007A
:10308000B9D9000061D9000053D90000CFD80000A1
:10309000054B064A9A65064A1A66064B064A9A6521
:1030A000064ADA65704700BF88050020B3CD0000EE
:1030B0005521000094060020FDCC000065CE0000E4
:1030C000252A034610B5084618D8012A19D9023A0C
:1030D000232A16D8DFE802F01A15252424311533E7
:1030E000152439434715154B24245E5E7474151559
:1030F0001515151515151515157B868EFF2A00F06B
:10310000818040F2DD415120FDF7CCF81A785B68F0
:10311000012A02D193F8103101E093F819310371BB
:1031200010BD5968D1F8BE214260D1F8C221826039
:103130005B68D3F80431C360F2E75B68EAE70146F5
:10314000BDE81040184600F00DBA59224271002225
:10315000102382717E220371C2710372E0E75B6803
:1031600093F80A31DBE7BDE8104000F0EBB95A688C
:103170001B784BB992F8103133B192F80D310371CD
:1031800092F80C314371CBE792F80B31037192F84E
:103190000A31F7E75B68B3F854200271120A4271F2
:1031A000B3F812218271120AC271B3F85020027270
:1031B000120A4272B3F8103183721B0AC372AFE76E
:1031C0005B6893F82621027193F82731DAE7124AF7
:1031D0001468002CA4D001461A4623202346BDE8DB
:1031E000104018470C4A1468002C99D001461A4622
:1031F0002420F3E7084A1468002C91D001461A46AF
:103200002520EBE75B68BDE8104093F83722D3F840
:1032100038120AF076B800BFA00700203F2803D874
:10322000064B53F82000704700F10A03DBB2022B73
:1032300001D8B638F4E70020704700BF88050020A9
:103240003F2803D8064B53F82000704700F10A03CB
:10325000DBB2022B01D8B638F4E70020704700BF7C
:1032600094060020F7B545682E6904464FF6FF77AF
:103270000DF102010DF101023046ADF8027008F0C7
:1032800000FE01A9304608F021FE40B1019808F087
:10329000E5FE616800220272FFF7CEFDE8E704490F
:1032A00005F1A00003B0BDE8F0400AF0ABB800BFE4
:1032B00015D60000F0B5044685B00D46FF2600F88F
:1032C000856C10F8863CF3B1184F3B781BB1482150
:1032D0001F20FCF7E7FF0C21381DFDF729F93E7090
:1032E000002304F8853C2A46072302F8033BD4F860
:1032F0000930C5F80330D4F80D305360D4F81130DC
:10330000936005B0F0BD01A80C21FDF711F9A4F5FB
:103310001373039AC3F8042101AB03CB44F88E0C5A
:1033200044F88A1C04F8866CDAE700BF1418002001
:1033300010B5054C23782BB90C21201DFDF7F8F8AA
:10334000FF23237010BD00BF14180020024690F820
:10335000C631BBB990F8C73103F0FF010BB10020B3
:103360007047094B18780028F9D01970D968C2F84D
:103370000411043303CBC2F8BE01C2F8C211FF230B
:1033800082F8C631012070471418002038B5426811
:1033900092F8873004460D463BB1132B05D0113B04
:1033A0000B2B8CBF0120082038BD92F8C83013B910
:1033B00020460AF0ECF86268D5F80E30C2F8B63153
:1033C000D5F81230C2F8BA316368D5F81620C3F8C0
:1033D00000211A88A3F855226A68C3F85722AA6800
:1033E000C3F85B226368AA89A3F85F22636800259B
:1033F00083F8C6516068054900F5137009F0FFFFB6
:103400006368152283F887202846CDE7B53200008F
:1034100038B5436893F887201C2A044604D04FF43B
:10342000DE711F20FCF73EFF93F8C8101D880022B4
:1034300083F8C72003F5C97069B10B4983F8C82028
:10344000A3F89C5183F89B2109F0D9FF63680022FF
:1034500083F8872038BD012283F89B11A3F89C5183
:10346000024983F89E21EFE7CBD70000BDD70000CB
:1034700038B54568AB6F13F0010417D14A680C4B9F
:10348000896813400B4AC5F8D830C3F3076343F08B
:1034900008030A4085F8DB30C5F8DC200AF077F82D
:1034A000AB6F43F00103AB67204638BD0120FCE75A
:1034B0002FC904F76FDB008008B5406890F88630AC
:1034C000042B28D14B688A68C0F8D830C3F307634F
:1034D00043F0080380F8DB300023C0F8DC2080F8DC
:1034E000C23080F8863090F8743103F0FF020BB1DF
:1034F000002008BD0388A0F8763180F875214B685C
:10350000C0F878318B68C0F87C31044900F5B6709A
:1035100009F075FFECE70120EBE700BFADD8000034
:10352000406890F8743153B90388A0F876311A23B3
:1035300080F87531024900F5B67009F060BF704738
:10354000ADD8000010B50446FEF7A0FD034A044BB9
:1035500002400B406260A36010BD00BF2FC904F79A
:103560006FDB008037B50C464568FEF78FFD084AD3
:10357000084B0A4095F8D8100192034000930B4085
:103580008DF800306B4603CB6060A16003B030BDA6
:103590006FDB00802FC904F738B5DB04154604D56E
:1035A000037D13B10023436338BD446B013444638E
:1035B0000AF0E3F9836B9C42F6D30023436303498B
:1035C0002846BDE8384009F023BF00BF09D90000F4
:1035D00038B5446894F88630012B054602D0A36FB5
:1035E00098073CD494F8C9309A0715D40A7984F81E
:1035F000D320B1F80520A4F8D420B1F80720A4F80E
:10360000D620D80743F0020284F8C9200FD5154907
:1036100004F1CA0009F0FCFE94F8C930D90711D4AE
:10362000A36F9A0708D555214020FCF73BFE94F87C
:103630002A31002BEBD1EFE743F00203A3672846C2
:1036400009F0A5FF94F88630012B4FF0000301D05C
:10365000002038BD84F8863084F8C230F8E70120B5
:10366000F7E700BF9BD9000070B545680446FFF737
:1036700079F9054B85F885001B6801461BB120468A
:10368000BDE87040184770BDA8070020024B1B68BA
:1036900003B11847704700BFA4070020F0B51F4DC5
:1036A0002B78002414709BB1013B6D68DBB21E1BAC
:1036B000012E0FDC05EBC40655F8347076688E4297
:1036C00008BF874227D0B84271EB060612D21470A9
:1036D0000020F0BD1E19771005EBC70E55F837C056
:1036E000DEF804708445C6F347068F412CBF33468D
:1036F0003446DCE705EBC30455F8335064688C426C
:1037000008BF854206D0A84271EB040428BF0133EC
:103710001370DDE71C4614700120DAE7341800202E
:1037200010F0070208B503D063214820FCF7BAFD6A
:1037300018B1034B197258601A70C80008BD00BF59
:1037400034180020014B00221A70704734180020F2
:103750000A46822302F8033B04480368C1F8033099
:103760004368536083689360704700BF3D18002032
:1037700002481622002107F017BB00BF3D180020A9
:1037800082B002AB03E903000B48437D93B15306BB
:1037900010D50A880280D1F81822B1F88030426032
:1037A000D1F81C2205498260438002220C3002B00D
:1037B000FFF754BB02B070473D180020513700009E
:1037C000094B53F8203070B503F523430C461646D9
:1037D000A1334FF47A72B3FBF2F503F01FFB3444CC
:1037E0002C44204470BD00BFC85D02002DE9F04F9D
:1037F0008DB09A4690F86930029304468946069245
:1038000009F03BFA834694F87300FFF78BF8834482
:103810000AF00AF994F887300393069B1FFA8BFB92
:1038200000F1500783BB94F8DC31032B2CD1039BB0
:103830000D2B29D1B4F83C324B4525D1D4F8E431D5
:10384000C4F8D031A369B4F8B421C4F8D431B4F8C1
:103850002A321344C4F8D831204602F001FAD4E9E0
:103860009023A262B4F83E22A285D4F848222262B4
:1038700041F64B529342A3618CBF0023012384F88D
:103880007230022384F8DC31B4F82852B4F8808016
:10389000A9EB05052DB204F5FC73002D0493BFBF01
:1038A000D4E98423C4E9882301230493CD4BA8BF22
:1038B000CDF810A0A9EB08081B780FFA88F8B8BF5C
:1038C000454613B106F050FB58B9002694F8DC3198
:1038D000032B00F2DC81DFE813F069006301BA001A
:1038E0008901B4F8C831012BEFD994F8DC31022BEF
:1038F000EBD094F8F661002EE7D194F87300FFF74F
:1039000011F894F8DC3100F5C86B012B1FFA8BFB22
:10391000D9B23ED194F88A20A36A032A32D1D4F8CE
:10392000D42113445946D4F8D401079306F0E0FAA1
:10393000D4F8D061079BD4F8D821C4F8D001861BF5
:1039400059461846564306F0D3FAD4F8E031C4F885
:10395000E001C31A5946A0691E4406F0C9FAB4F83A
:10396000B431D4F8D82143445B1B9B1AD4F8E4212A
:10397000013B821A02FB03660123C4F8E40184F8C8
:10398000F631A3E73046079309F032FB079B034467
:10399000C8E7A069594606F0ABFAB4F8B461D4F8A8
:1039A000E4314644761BC31A5E43E5E7012100205B
:1039B00009F01EFB8046A06A5946404406F098FA7A
:1039C0005946C4F8E001A06906F092FA09A9C4F8C2
:1039D000E4010AA803F0DEF8099B0093D4E988010A
:1039E000DDE90A2305F03EF9029020460AF034F89A
:1039F000A16AD4F82C2294F869008D1803F016FA05
:103A0000D4F8E011029B203D6D1AED1B454400F5F2
:103A10002340ED1AA1304FF47A73B0FBF3F0A38D7D
:103A200030312D1A03EB410194F869003A46FFF753
:103A3000C7FED4F82C32EB1A2230B3F5917FC4F8CC
:103A4000E80159D240F2FC413020FCF72BFCA36A7C
:103A5000D4F8D4015946184406F04AFA5946C4F835
:103A6000E001A06906F044FAC4F8E401204609F038
:103A7000F3FFA36AD4F8D4511D44B4F8B431002B39
:103A800040F08A80BAF1000F00F0868094F8690057
:103A900003F0CCF9D4F8E011D4F8183294F8692086
:103AA0006D1A203D1D44D4E984BC4F4B53F82220AD
:103AB000A5EB0B054FF47A7302F2E732B2FBF3F297
:103AC0001544ED1B00F52340A130B0FBF3F02D1A97
:103AD000D4F8D821D4F8D03194F8690002FB03134C
:103AE000A18D303301EB43013A46FFF769FE012314
:103AF000C4F8E80184F8DC31A369D4F8E421E73B99
:103B00009B1ADF1B002384F8F831D4E988328742FE
:103B1000A5EB060528BF07465B1942F10002C4E980
:103B20008232C4F8B07104F1300009F09CFCD4E991
:103B30008223C4E98823B4F8A031A4F82892A3EB27
:103B400009031BB2002BD4BF00220122520084F8CB
:103B50000022039A38440D2AC4F8FC0100F09A8030
:103B6000BAF1000F40F0998094F8DC31002B00F09E
:103B7000B180A169D4F8E43104F5FC70C91A09F0E8
:103B8000D0F980B2002800F0A580169B03B1188000
:103B900001200DB0BDE8F08FD4F8E0116D1A97E761
:103BA000D4F8E411A369B4F8B421D4F8D8015B1AAD
:103BB0004244121A5D43D4F8E03102F1FF3CD4F8DC
:103BC000D021303302FB003301FB0C33A18D94F87C
:103BD00069003A4601EB4301FFF7F2FDC4F8E80142
:103BE0008AE700BF60180020C85D0200D4F8E4E155
:103BF000A369A3EB0E035D4394F88630252B03D015
:103C000094F88730252B0CD1B4F83C32A9EB030390
:103C10001B0406D4029A94F83F32002B18BF1A46B0
:103C20000292049BB4F8B4C143B3BCF1000F25D198
:103C3000D4E98623D4E98401904271EB030302D3D3
:103C40004FF4AA6100E794F869102C4B53F8213027
:103C5000D4E98401CDE904010498203A121A03F250
:103C6000E7314FF47A7B03F52343B1FBFBF10A44C0
:103C7000A133B3FBFBF3D21AD21B15440CEB0801A2
:103C80000EFB01F1303102983A464900A4E74FF4A7
:103C9000AD61D9E6BAF1000F1CD0B4F8C80118B371
:103CA000B4F8CA1194F8CC21A4F8CA1101FB02227D
:103CB000904201F101050DDD002B0BDD002384F89E
:103CC0000032A4F8CA51FFF739F900F007000130BB
:103CD00084F8CC0194F8F70104F5FC7104F0BAFD06
:103CE00020B940F2B151AFE60146DBE7069B83F015
:103CF000010384F8F43100204BE700BFC85D0200E7
:103D00002DE9F341044618B9E2213020FCF7CAFA44
:103D1000072900F2BF80DFE801F00486474742BD73
:103D200033BA04F083FFC4E94001204601F030F8C3
:103D3000D4F8F400CB3804F075FE10B940F27B21C2
:103D4000E3E720460AF02EFA0546F8B90146204678
:103D50000AF051F900F1E506D4F8F400B04209D2B6
:103D6000301A322838BF3220032104F07DFE051EB0
:103D700018BF0125C4F8F46020460AF02DFA3DB1C1
:103D8000204602B0BDE8F0410AF027BA0025F3E76B
:103D9000D4E94023C4E93A2302B0BDE8F08102B07F
:103DA000BDE8F04102F002BF0AF030F9002384F8C8
:103DB000F93007460E4604F085FC0722A7FB0235C2
:103DC00002FB0655D4F8EC200192D4F8E82013EB5E
:103DD0000208019BD4F8CC2045EB030532B157EA29
:103DE000060203D0404571EB050216D2022284F888
:103DF000F820D4F80821D4F80C31121A63EB010C26
:103E000094F818E1BEF1000F09D1012A7CF1000EEF
:103E100011DA204600F0C4FF05E00122E7E7012A9D
:103E20007CF1000CF5DB94F8C80004F065FC00237D
:103E300084F81031B0E7404571EB050E0FD23E43D8
:103E40000DD0B8EB000365EB01019A427CEB010059
:103E500005DB012B71F10000A4BF1A468C460F4907
:103E600094F8C8000123914284F811314FF0000307
:103E700084F8F03073EB0C03B8BF0A4604F1F0018C
:103E800004F0FEFE002887D140F2EF613DE74FF4D9
:103E900080713AE74FF4827137E700BF0040420F6C
:103EA0002DE9F04104460E46154690F8103103F016
:103EB000FF071BB10C273846BDE8F0810146474893
:103EC00004F02CFC20288046F4D05722394604F117
:103ED000C90006F069FF84F8C880C4F8CC60FF23ED
:103EE00084F8103136B1FFF741F800F007000130D7
:103EF00086F8CC0102234FF00008A4F8F83084F8CB
:103F0000F08006F057F800F19E0620460AF04AF9C4
:103F1000B6B20146C8B308F0B0FE00F5CD6189B273
:103F2000284605F0E5FF2844C4F8F40004F0CAFB75
:103F3000301841F10001C4E94001012084F8D000AB
:103F4000A4F826800AF0EDF9E53D2D1AC4F8D45006
:103F50004FF0FF356FF00041D4E94023C4E94251EE
:103F60000025C4E93823C4E93A2394F8C80084F84A
:103F7000115142F2107204F1F00104F081FE38BBDD
:103F800040F2EB113020FCF78DF920460AF033F8AF
:103F9000DFF84C80E530C4F8F400B8F8020048B10E
:103FA000E08C38B1FEF7E2FFB8F80230B0FBF3F274
:103FB00002FB1300064404F085FB361841F10001B2
:103FC000C4E94061002DC3D0AD1941F10001C3E740
:103FD000294620460AF003F96DE700BF013D0000C5
:103FE00060180020F0B5002385B0CDE9003301232F
:103FF0008DF806306846FCF74DFD70B11D4E01236B
:1040000033710027CDE9027702A8FCF743FD05468E
:10401000C8B10023337105B0F0BD009809F037FE38
:10402000E8E790F8F70104F0A9FC94F8F70104F030
:10403000DFFD94F8F70184F8DC5104F05DFB2023E8
:1040400084F8F731DEE7029B002BDDD093F8F721EF
:10405000202AD9D018884FF6FF739842D9D0294624
:10406000FCF7DEFC04460028DBD140F2371130209B
:10407000FCF718F960180020054B002201215A7145
:1040800019701A7142F210725A80FFF7ABBF00BF6D
:1040900060180020014B5871704700BF6018002065
:1040A00008B502F053FA044B9A6882422ABF187985
:1040B000002080F0010008BD601800202DE9F347C2
:1040C0000446062900F2DA80DFE801F004867383F3
:1040D0008A8FD300D0E98401D4E98623904271EB22
:1040E000030354D294F8F631002B50D094F8DC310D
:1040F000032B4CD109F098FC94F869A0814608F094
:10410000BCFD064694F87300FEF70CFC064494F8D8
:104110007300FEF707FCD4E98423D4F81872D4F8AE
:10412000B05180465046BF1A02F078FE554A52F808
:104130002A20A5F1500302F52342A1324FF47A71EF
:10414000B2FBF1F29B1AA3EB09031B1A09F17909DF
:1041500009EB5309B6B2603B08F5C86873431FFA10
:1041600088F8B3FBF8F360335A08A9EB53039F4276
:1041700002D391444F4501D905F0FCFEA0693146B8
:1041800005F0B6FE0023C4F8E40184F8F6313E4B96
:104190001B7903F0FF0263B90092B4F8A411012364
:1041A0002046FFF723FB38B140F21E713020FCF7A8
:1041B00079F8042384F8DC3102F0DAFB04F086FAA3
:1041C000B4F88020A4F8F2210023A4F82A3284F85D
:1041D000F53102B0BDE8F087032380F8DC31F8E761
:1041E0000AF041FAC4E98601F3E790F86900264F26
:1041F00009F022FCB530D4F8E431A56995288CBFCC
:104200000020C0F19600C218954288BFED1A7B7954
:104210008CBF2D1A00251BB9236B9D4228BF1D465C
:1042200004F13000D4F8B06109F01DF90644022011
:1042300004F0D4FCAD1B25EAE575854228BF054690
:104240000221284604F010FC00B92E44012340F25C
:1042500045123146204609F05CF9D4F8B031B86017
:10426000A069184404F0DEFB0028B2D140F2A3316B
:104270009CE702B0BDE8F04709F0EEBB40F2ED71FB
:1042800094E700BFC85D0200601800202DE970436C
:104290000C4615466ABB0246174994F8C80004F05C
:1042A00067FA20B940F2FD713020FBF7FBFF02F006
:1042B0004DF9D4E94089064684F8D05084F810516D
:1042C0000121D4F8CC00FEF7BDFAD4F8CC00C0E947
:1042D000848994F8C83080F8F731C0E98889C0F83B
:1042E0002C6209F0A9FC02F043FBBDE8704304F026
:1042F000EDB940F61801D7E773DA0000014B58809A
:10430000704700BF60180020074A03461068D3F8C2
:104310005120C0F80320B3F85520A0F8072093F8E7
:10432000501008F05FBF00BF6C18002070B5044645
:104330000E466588407F15F00401134618BF04F14E
:104340005F013246FEF7D0F94107054621D4C20786
:104350000BD5012384F85030607FFEF729FA0368FB
:10436000C4F851308388A4F85530AB0701D401203C
:1043700070BD094B1868D4F85F30012184F85E10D5
:10438000C0F80930B4F86330A0F80D3008F033FFFE
:10439000EDE70020ECE700BF6C18002038B5C38DB6
:1043A0000F4D0133C3F30E03C385AB7C04462BB121
:1043B00002F0AEFB01F0D0FC0023AB7400232B71A4
:1043C00094F871302BB101212046BDE8384009F046
:1043D0000ABD637C13B1E28D9A42F4D20021F3E767
:1043E0006C18002010B5094C2379012B02D02379D9
:1043F000022B05D1A37C1BB102F08AFB01F0ACFCBF
:10440000E069BDE81040FFF7C9BF00BF6C1800208D
:1044100070B5294C2379012B07D02379022B04D0C6
:1044200040F65C412D20FBF73DFFA0B90125A37CA0
:104430001BB102F06DFB01F08FFC002D3AD0E0695A
:1044400009F04AFC002830D002F040FA236ABDE8A7
:1044500070409B6818472168E26911F8095B02F116
:104460005103E80992F8502008F00FFD0028DDD034
:104470002068002108F0E4FE0028D7D02379E06905
:10448000012B05D02379022B02D040F63541C9E734
:104490002379226A03F180435269013B05F00F0141
:1044A00052F8233098470546C1E7E069BDE87040FF
:1044B000FFF774BF70BD00BF6C180020074A0346A9
:1044C000D06903B909B9FFF769BF1379126A03F11B
:1044D00080431269033B52F8233018476C180020C0
:1044E0002DE9F043032985B00546174607D14388D7
:1044F000980723D40024204605B0BDE8F083428805
:1045000090F87030D107DBB2F4D5002BF2D14FF028
:104510000108DFF8D49099F81260C6B108F0EAFCFF
:104520000828387016D002AA0DF10701FEF7B2F87C
:1045300038B940F6D4612D20FBF7B4FE4FF00208E5
:10454000E7E79DF8070002A909F064FA06463B7800
:10455000082B08D1D9F8001011F8030BC0F3801014
:1045600009F058FA0646D9F8001095F8572011F8C6
:10457000030B05F15803C0F3801008F086FCD9F84E
:104580000010044611F8030BC0F3801008F0A8FCDB
:104590008146FEF71FF940B1B9F1080F1BD048461C
:1045A000FEF74AF880F00103D8B23A78082A14D00E
:1045B0001CB96C7FA21A544254416A8853079AD49A
:1045C000002897D176B9EC7C444518BF002C0CBF6D
:1045D000012400248FE70020E7E780F00102224059
:1045E000D4B2EAE7344686E76C1800202DE9F04F94
:1045F00085B008230DF10702052104468DF8073028
:10460000FFF76EFF064620B90026304605B0BDE82C
:10461000F08F744F3968FA7C11F8030B07F114031B
:10462000C0F3801008F031FC80460028ECD13B68D4
:10463000216A184691F88E2010F8035B02EA5512A1
:1046400002F0010281F88E20D3F80320C1F8032084
:104650008288A1F807201D46226A15F81F1BC1F3A6
:1046600080119170D3F81F00029002A92879087177
:10467000D3F80F00D061587D1D7D000440EA05206D
:10468000DD7C28435062B3F8190082F8728040F252
:10469000E24909FB00F090619D7DC5EB451005EBFB
:1046A000800505EB85056D009585B3F8170009FBBE
:1046B00000F09062B3F81B001084B3F81D00508422
:1046C00093F8243003F01F005B0982F89A0082F807
:1046D0007330256A94F912A005F18E0008F0DEFC13
:1046E00040F20113A5F868304FF0FF0B85F86AB06F
:1046F000414605F13000FEF7BDFB51462846FEF766
:1047000007F9236A84F87B801A88A4F87C2084F84F
:1047100099B04FF6FF72A4F89A209A69B2FBF9F2A9
:10472000A4F892201A8CA4F894205A8CA4F896200D
:1047300093F8732084F89820227F9DF8070004F1F5
:1047400086015AB394F85020012A27D194F85620B4
:1047500002F0C002402A21D1D4F85120C4F88620AA
:10476000B4F855208A809A7884F87F20082803F1CD
:10477000030504F18C01D3F8033004F1800227D043
:10478000C4F88C30AB888B8004F17F01FDF782FF89
:1047900040B940F6BB312D20FBF784FD0022C4F860
:1047A0008620DFE794F87F3043F0020384F87F30FF
:1047B00004F172000C4908F022FE0C4B206A1B68C1
:1047C00000223A71002B3FF420AF214698471CE7A6
:1047D000C4F88030AB8893800023C4F88C308B8081
:1047E000E6E700BF6C1800200DDF0000B0070020D6
:1047F000032973B5044604D0052952D0012002B024
:1048000070BD08230DF107028DF80730FFF768FE31
:104810000028F3D0237C274D03B39DF8070094F8BC
:10482000BE30DBB9237884F8BF30082804F1C10218
:1048300028D004F1C001FDF72DFF20B940F64A71E0
:104840002D20FBF72FFD94F8C03043F0020384F8CD
:10485000C030194904F1B60008F0D1FD2B680622DA
:1048600004265A701E702046FFF74EFD286894F803
:104870004020E16B08F0D5FC28682E7102F0C6F8E4
:104880000020BCE72868034613F8031BC1F380111E
:1048900084F8C010D0F80310C4F8C1109B8893802E
:1048A000D7E7064B1B68002BEAD0984780F0010041
:1048B000C0B2A4E76C180020F5DE0000AC070020B1
:1048C000F8B504460F4619B300F12805284609F04B
:1048D00001FDA0B963881A072ED5284609F011FDFD
:1048E0000646284609F0F6FC301AC0B209F019FD58
:1048F000474A936803442846936009F0C7FC28465A
:1049000009F0C9FC01F048FF2179252001F066FE7D
:104910003F4E94F85E203068002303704370638834
:10492000103B0D2B64D8DFE803F05F635B0C634042
:1049300063636363636363402046BDE8F840FFF749
:104940002DBD06234370202303702046FFF7DCFCB7
:10495000638823F008039BB2152B05D094F8382008
:10496000616B306808F04EFC306802F04FF80323AA
:1049700021793371002001F039FF054607B9F06055
:1049800063881B0704D509F0C9FC0544C4F8D85056
:104990006388103B0D2B36D8DFE803F038352F2F16
:1049A000352F353535353535352F0C2343700346D6
:1049B000212103F8091B52B1D4F85F20C0F8092067
:1049C000B4F863209A80012108F015FCBDE7A26DC0
:1049D000C0F80920B4F85C209A8094F85710F3E7E7
:1049E000062303704370B0E7022303700623F9E740
:1049F00040F236612D20FBF755FC21790120BDE8FE
:104A0000F84002F0ABB840F6CF41F3E7F8BD00BF85
:104A10006C18002038B54388102B044604D1BDE83B
:104A200038400121FFF74CBF0B4DAB7C23B101F0A7
:104A300079F9402002F060F8286801F0E7FF60880B
:104A400010F0040002D1217902F088F8002002F071
:104A500031F801232B7138BD6C180020024B012165
:104A6000D869FFF72DBF00BF6C18002010B5134C9C
:104A7000A37C1BB102F04CF801F06EF9E06909F07B
:104A80002BF970B12379012B10D12379226AE069C7
:104A9000D26803F18043013BBDE8104052F8233057
:104AA0001847E069BDE81040FFF778BC2379022B76
:104AB000EBD040F65E312D20FBF7F4FB6C180020A4
:104AC00010B50748037903F0FF0433B918222146D3
:104AD000043006F069F9204610BD0C24FBE700BF46
:104AE0006C18002010B5094C002323712060FFF7DB
:104AF000E7FF20B140F2EF212D20FBF7D3FB236A23
:104B000013B940F2F221F7E710BD00BF6C18002086
:104B1000014B024A1A6270476C180020EC4D0000ED
:104B2000034B044A1A60044B044A1A60704700BFE2
:104B3000AC070020ED450000B00700208D420000CA
:104B4000F8B5057DAF1E0446FFB2002D3AD0012F07
:104B50002DD800F1580190F8570008F0C1F9082845
:104B6000064624D0FDF774FD10BB023D18BF012599
:104B7000012F8CBF0027012784F8505027776677D4
:104B8000FDF782FD054603F09DFD174B0022E5FB76
:104B90000301C4E9120184F85E2011462046FFF7A4
:104BA000C5FB70B940F27A412D20FBF77BFB08264C
:104BB000022D09D104F151010020FDF733FC80B929
:104BC0000020F8BD0826F5E7E37E002BF8D0D4F8E6
:104BD0001530C4F85130B4F81930A4F85530012517
:104BE000C6E70025C4E700BF40420F00F0B5464EBF
:104BF000327985B0044602F0FF0312B90278FF2A29
:104C000004D140F6B9112D20FBF74CFB3382B36081
:104C10007371B37180F871303C4B00933C4B01933E
:104C20003C4B0293336A68465B68039301F0E6FEEF
:104C300001F018FD01F06CFF01F08EF8364801F02C
:104C4000A1FD04F12805354801F0D2FE284609F0FF
:104C50001DFB284609F01FFB01F09EFD2179252050
:104C600001F0BCFC94F9120001F086FD04F134015E
:104C7000206B07F0FEFA04F13C010746206B07F0B9
:104C80001FFB0546E7B194F82430CBB1B4F92E50A0
:104C9000ED43ED0F237F13B963885B0709D5D4E992
:104CA00012126FF000439A4208BFB1F1FF3F0ED1DC
:104CB000A5B930680330FDF705FDB07405B0F0BD4F
:104CC000002DE7D094F82550002DDFD1E2E703F066
:104CD000F9FCD4E9122390429941E9D301222946F3
:104CE0002046FFF723FB50B1FDF7CEFC054603F04D
:104CF000E9FC0B4BE5FB0301C4E91201D9E7002DE8
:104D0000D7D040F6F6117EE76C1800206D4A0000FF
:104D100011440000BD440000D6BE898E5555550093
:104D200040420F0073B50446FFF760FF00212046A4
:104D3000FFF7C6FDA36E0BB101221A606388DB0783
:104D400020D50023104E256ACDE90033FF23F374EC
:104D50006846FBF79FFEA8B9009CA542F8D06A7A86
:104D6000607A05F10A0304F10A0108F08EF80028C0
:104D7000EED0A378F374D4F803007061034BB4F859
:104D800007209A8002B070BD6C18002080180020A7
:104D9000024BD8611B6A1B68184700BF6C180020C3
:104DA00043881B0710B5044611D5036A0A493C2203
:104DB00080F87B201B88A0F87C30FF2380F8993096
:104DC0004FF6FF73A0F89A30723008F018FBFF23FB
:104DD00084F8713010BD00BF0DDF00005FDF000000
:104DE000154A000065DF0000F1470000254D000076
:104DF000E54300005D4A0000DC4D0000E04D00008E
:104E0000E84D00000138022808B503D9C3212F203E
:104E1000FBF748FA13290A4B05D811290CD8102999
:104E200007D0D121F3E71529FBD103EB4003D88844
:104E300001E033F8100008BD03EB40039889FAE75E
:104E40003C5D02000C4A1178034689B9906833B979
:104E5000B0F85810828F91420AD8FFF721B9938990
:104E60001B0707D590F88800073818BF0120704746
:104E70000020704701207047901800202D4AF8B597
:104E8000948903461C43402B9068948104D10421EB
:104E9000BDE8F840FFF712B9802B01D10521F7E7F3
:104EA00003F00304032C04D140F6CE213120FBF79C
:104EB000F9F913F0020418BF1161DD0705D551613E
:104EC000C97806290DD00B2917D02CB11169C978E2
:104ED00005291DD00B2927D09B0644BF082313703A
:104EE000F8BD90F887101829EFD10026002701217E
:104EF000C0E9386780F88B10E7E790F8871012292F
:104F000001BF002180F88B10012180F8C810DCE778
:104F100090F887101629DFD100240025C0E93A4512
:104F2000012180F88C10D7E790F887101129D3D190
:104F30000021F6E79018002037B5044601A8FDF7D8
:104F4000FBF920B940F6AE013120FBF7ABF9222284
:104F50000021019805F028FF019D0321284608F053
:104F6000BCF92B7823F010032B7001982146FDF734
:104F700041FD019905482246FEF7A2F8FDF7F0F938
:104F800010B940F6B801DFE703B030BD9418002037
:104F9000264B70B59C6894F83E5294F83F62002D01
:104FA0003DD194F86810002E3BD194F8693084F814
:104FB000681084F86930FF2384F86A301C4B1B6842
:104FC0000BB12046984794F82431012B01D035438A
:104FD00003D018480021FDF781F804F1300630466F
:104FE00008F041FA04F2351105462046FDF758FF56
:104FF00020460621FFF762F8304608F034FA854271
:10500000044610D203F0DEFD0146601B322838BF93
:10501000322003F029FDB0FA80F0400970BD294626
:10502000C1E73346C3E70120F8E700BF901800202E
:10503000C00700209418002010B5154B1B69197982
:10504000436893F88620092A09D193F809218A42F6
:1050500005D1002283F8862083F8C22010BD9A6F04
:1050600012F0080406D022F00802BDE810409A674A
:1050700008F097BAFF2905D1332283F8862083F8F8
:105080003442EBE740F24E513120FBF70BF900BF01
:1050900090180020F8B50D79A5F10E03DBB2152BA1
:1050A00004460DD8012606FA03F740F251221742B2
:1050B00008D14268152B92F8862028D0082B08D0FA
:1050C0000020F8BD024631462846BDE8F84009F008
:1050D0002CB9212A01D02E2AF2D1204608F04EFA0E
:1050E000636893F88720222AEAD093F8D92022F027
:1050F000010283F8D920626892F8D93023F00803BE
:1051000082F8D9301A212046FCF7E8FFD8E7282A90
:10511000D6D1034B1B68002BD2D09847D0E700BFF5
:10512000BC0700202DE9F041A0F10E040029E4B2F3
:1051300008BF1F21172C13460AD80126A64040F2AB
:1051400051273E4207D116F4600F23D1082C07D017
:105150000020BDE8F081BDE8F041002109F0E5B88C
:10516000546894F88620212A08D11846FCF7B6FF27
:10517000002384F8863084F8C230E9E72E2AE7D18C
:1051800094F88720A2F120010629F1D92E2AEFD028
:105190002A21EAE7054A1468002CD9D00A460146BC
:1051A00018462346BDE8F041184700BFB807002065
:1051B0002DE9F7437F4D0646AC68002840F0A480F7
:1051C000AB891A0724D594F80E31FE2B04D140F296
:1051D000D1513120FBF766F8FE2384F80E3194F8A4
:1051E00087301A2B06D184F8C700281D08F0D9F99A
:1051F00084F8876094F88630202B33D0332B3FD04F
:1052000094F88830072B02BF02232B7684F80E31E6
:10521000AB89DB073DD4AB895F0700F1AB80990711
:1052200040F1B280AB68012283F80F212B69DF784F
:105230000D2F00F0A680112F00F0B180072F00F095
:10524000B0803846FDF7FCFF0346002840F09A8006
:10525000FF2F40F0A880AA68332182F8861082F8D8
:10526000340291E094F88730A3F12002062A05D990
:105270002E2B03D0212384F88630C1E72E23FAE7B2
:10528000012384F83532002384F8863084F8C23054
:10529000B6E7D5F80890D5F8148099F88730113B17
:1052A0000B2B0BD898F80330023BDBB2092B7DD8CF
:1052B00040F2333222FA03F3D80777D54046FDF7A0
:1052C0007BFB98F8037020B939463B4808F091F908
:1052D00049E0012F01D9162F30D199F8860008F046
:1052E00075F940B199F88630202B04D0212B07D1D5
:1052F0002E2389F886303846FDF790FF03462AE0D2
:10530000162F14BF022620262B781B0712D594F8DF
:105310008730113B0B2B4BD9002501A903200195A8
:10532000FCF72CF8019B2BB11D720C220198214631
:10533000FDF750FD304603B0BDE8F083112F0ED0CD
:1053400005D8072F14D00D2FD5D11C4B08E0142FF2
:10535000D1D11B4B1B681BB998F80310B5E7194B4B
:1053600069691548984700283FF455AF0646CBE7D2
:10537000154BF5E794F88820062A04BF01222A7607
:105380004DE7124B0C489847AB89DA06BCD594F828
:1053900087300A2BB8D10B2384F88730B4E70C4B45
:1053A000F0E70C4BEEE740F2C45112E70826ABE7FA
:1053B0000820C0E7901800209418002069E400003D
:1053C000B4070020B1E4000095500000F9E30000AC
:1053D00017E40000395000002DE9F74FB64F0E4694
:1053E000B989BC688D0556BFB4F8B82000230132D6
:1053F00004F1780A804646BFA4F8B83084F8AF318B
:10540000A4F8B820504609F01EF830B10B4604F558
:10541000967221465046FEF7BFF8BB8903F4C0637D
:105420002BB194F88A30002B47D0032B4CD094F842
:105430008A20BB89012A04D1180544BF022284F8BE
:105440008A20B8F1000F40F0958059065DBFB4F88E
:10545000C821013292B24246A4F8C82103F00A02E0
:105460000A2A0DD13A69D278022A09D123F0080319
:105470003046BB81FFF79CFE08233043C6B2BB8198
:105480003046FFF795FEBD6895F80E313043FE2B90
:10549000C6B23CD1DEBB95F88830063B012B36D92D
:1054A00095F81831ABB195F81931A5F8BC6085F8BD
:1054B00010310122022128462BE1012184F88A10B3
:1054C0002046FEF7FBFDB2E7022384F88A30012173
:1054D000F6E795F88790A9F110095FFA89F9B9F113
:1054E0000C0F40F2ED80AB6FDA0702D5324609218E
:1054F000E1E7980740F1938032460C21284608F0F6
:1055000062FF95F8C93043F0010385F8C930B4F85B
:10551000A83194F8AC510133A4F8A831002D00F063
:10552000FD81FBF71DFF10B10023A4F8A83194F80A
:105530008A10012940F2278294F88830072B40F026
:105540000582B4F8B830022B40F21D82B4F8BA508C
:105550000135ADB2B4F880302B44A4F8A03194F8F2
:10556000AD31002B00F013820123B4F880201344E6
:10557000A4F8A431BB89BD685B065FBFB5F8B43140
:10558000B5F8A6219B189BB248BF0023A5F8B431FB
:1055900095F8183123B995F88830063B012B06D8C9
:1055A000B5F8BC30B5F8A6211344A5F8BC3095F881
:1055B000C21031B1B5F8BE30B5F8A6211344A5F834
:1055C000BE3095F9C620002AC1BFB5F8C430B5F881
:1055D000A6011B18A5F8C43095F8A93063B9B8F135
:1055E000000F40F065823B7E022B40F0178295F859
:1055F0001031062B18BF162395F8A82022B92F4882
:1056000085F8A930FDF72EFE284608F08AFF002312
:1056100084F8AB3103B0BDE8F04FFCF7C7BE5907C3
:1056200002D53246132146E71A0706D595F8083108
:1056300085F81031324607213DE713F0300F35D0A1
:1056400095F81B31002B4AD195F81A31CBB195F85A
:105650008730252B05F58D7105F23E2224D095F873
:105660008630A3F1250043424341284607F0FFFE60
:10567000AB6F23F0200343F01003AB67002385F8E2
:105680001A31AB6FDA062AD505F235112846FDF737
:1056900007FCB5F85230A5F81031B5F85630A5F82A
:1056A00012310022152106E70123DEE75B0616D53D
:1056B00000222421FFE600BF90180020941800204B
:1056C000D7F808B09BF88730113B0B2B0ED8DFE8DA
:1056D00003F01D0D0D0D232C0D0D0D0D0D55B8688E
:1056E00090F88730222B4FD0312B4AD095F8863056
:1056F000002B59D195F88730103B0C2B5CD995F8CD
:10570000B630002B58D001221221D4E600220B2102
:10571000584608F058FEFAE65846FDF717FE0028EE
:105720003FF4F5AE00220421F2E79BF83032012B62
:1057300008D100220521584608F045FE00238BF8C9
:105740003032E4E69BF83032022BD9B27FF4DFAE80
:105750009BF8C85025B106238BF810310022EAE7E8
:1057600003210622B34807F02BFF9BF8D83013F033
:10577000040F2A460CBF0D211121DCE7002206216F
:10578000C6E700221121C4E790F82431022B02D190
:1057900000221721BDE790F82431012BA6D190F803
:1057A0002531002BF4D0A1E7092B05D195F809315B
:1057B00085F8103101223EE7B9F10C0F7FF6A7AE54
:1057C000D7F8089099F886B0BBF1000F40F08C80B4
:1057D00099F82B313BB101220E21484608F0F3FD28
:1057E00089F82BB1ADE799F82A3193B199F8C9B08E
:1057F0001BF003030DD101220C2148464BF0010B95
:10580000019308F0E0FD89F8C9B0019B89F82A31BD
:1058100097E799F81A3133B399F81B311BBB99F804
:105820008730252B09F58D7109F23E2219D099F8A0
:105830008630A3F1250043424341484607F017FE56
:10584000002389F81A3101221421484608F0BBFDD3
:10585000B9F85230A9F81031B9F85630A9F8123118
:1058600055E60123E9E799F82431012B4BD199F84A
:105870002531002B47D199F88730A3F12002062A61
:1058800041D92E2B3FD099F86800012806D0022874
:1058900004D04FF461710620FAF704FD99F86910FD
:1058A000012901D00229F4D1022899F826210BD030
:1058B000012A14BF0022012242B90A3B042B13D94A
:1058C00001221621484624E7022AF2E7022999F824
:1058D000272116D0012A14BF00220122002AECD071
:1058E00054480021FCF7FAFB95F88630002B7FF432
:1058F0000EAE95F83432002B3FF409AE0122FF21A1
:10590000D9E5022AE7E74C4B1B68002BECD049484D
:105910009847FE280146E7D00122D3E7FBF71AFD9E
:1059200008B1A4F8A851FBF723FD00283FF4FFAD10
:1059300094F8AF310133DBB2022B84F8AF3182BF70
:105940000023A4F8A83184F8AF31F0E594F8B6301C
:105950001BB194F886300F2B15D1B4F8BA50B4F8B7
:10596000B8305046ED1A033D08F06DFD68B1D4F82B
:10597000B030D4F8AC20033B9B1A9D42A8BF1D4613
:10598000012D3FF7E6AD0125E4E52B46F5E7012DB6
:105990007FF6EAAD94F8873013B10B2B7FF4E4ADBA
:1059A00094F88630002B7FF4DFAD94F88830002B1C
:1059B0007FF4DAAD02297FF4D7AD94F8AF31002B34
:1059C0007FF4D2AD2069B4F82E9006F0AEFA00282C
:1059D0003FF4CAAD94F80E31FE2B7FF4C5ADB4F898
:1059E000A231012B7FF6C0ADB4F8A821238C9A42D6
:1059F000BFF4BAAD9B1A9BB2013DADB2B5FBF9F550
:105A00009D4228BF1D4619FB05F3003D03F101032C
:105A100018BF01259BB284F8AA51A6E5012B0DD130
:105A200095F88930002B7FF4E7AD00212846FEF77A
:105A300045FBECE594180020C40700205EB1F00699
:105A400034D4310734D4B20634D4B30734D140F659
:105A50004F21312020E739B1B5F8BE10B5F8C0307C
:105A6000994201D32223C7E5002A05DDB5F8C420F9
:105A7000B5F8C0309A42F5D2B5F8BC20B5F8BA30C6
:105A80009A420AD295F88A20B5F8B83052B1B5F8E2
:105A9000BA209A42C9D80823AEE595F81831002BF0
:105AA000E0D1EFE7052BC0D93E23A5E51E23A3E5F2
:105AB0003D23A1E523239FE52A239DE5634B73B591
:105AC0000025012604461E7198609D811D701D767B
:105AD000FF2380F8AB310088FCF728FC2088FCF716
